{
  "transactions": [
    {
      "hash": "0xd7c2bcc47454aea503b8ff1ef4c21275baa9b4143b799887bce0d8c4e5ed3d01",
      "transactionType": "CALL",
      "contractName": null,
      "contractAddress": "0x036cbd53842c5426634e7929541ec2318f3dcf7e",
      "function": "approve(address,uint256)",
      "arguments": [
        "0x6F1338cbb22cD90b852492c3E77cd79a6C3c1551",
        "1000000"
      ],
      "transaction": {
        "from": "0x9eba95858162442143864669e6611a6a50ddeec8",
        "to": "0x036cbd53842c5426634e7929541ec2318f3dcf7e",
        "gas": "0x12b1b",
        "value": "0x0",
        "input": "0x095ea7b30000000000000000000000006f1338cbb22cd90b852492c3e77cd79a6c3c155100000000000000000000000000000000000000000000000000000000000f4240",
        "nonce": "0x22",
        "chainId": "0x14a34"
      },
      "additionalContracts": [],
      "isFixedGasLimit": false
    },
    {
      "hash": "0xf23166d04fc2c62a99de51eaf4728d444e3a2b073646b51a8f5a54102c0eed6f",
      "transactionType": "CALL",
      "contractName": null,
      "contractAddress": "0x6f1338cbb22cd90b852492c3e77cd79a6c3c1551",
      "function": "deposit(uint256)",
      "arguments": [
        "1000000"
      ],
      "transaction": {
        "from": "0x9eba95858162442143864669e6611a6a50ddeec8",
        "to": "0x6f1338cbb22cd90b852492c3e77cd79a6c3c1551",
        "gas": "0x282e9",
        "value": "0x0",
        "input": "0xb6b55f2500000000000000000000000000000000000000000000000000000000000f4240",
        "nonce": "0x23",
        "chainId": "0x14a34"
      },
      "additionalContracts": [],
      "isFixedGasLimit": false
    },
    {
      "hash": "0x65d1f8413bd11273f6db3ed9634b5f2ff3719dc39729ce9404a2883f633104e9",
      "transactionType": "CALL",
      "contractName": null,
      "contractAddress": "0x6f1338cbb22cd90b852492c3e77cd79a6c3c1551",
      "function": "crosschainBurn(address,uint256)",
      "arguments": [
        "0x9Eba95858162442143864669E6611A6a50DdeeC8",
        "1000000"
      ],
      "transaction": {
        "from": "0x9eba95858162442143864669e6611a6a50ddeec8",
        "to": "0x6f1338cbb22cd90b852492c3e77cd79a6c3c1551",
        "gas": "0x9414",
        "value": "0x0",
        "input": "0x2b8c49e30000000000000000000000009eba95858162442143864669e6611a6a50ddeec800000000000000000000000000000000000000000000000000000000000f4240",
        "nonce": "0x24",
        "chainId": "0x14a34"
      },
      "additionalContracts": [],
      "isFixedGasLimit": false
    }
  ],
  "receipts": [
    {
      "status": "0x1",
      "cumulativeGasUsed": "0x5cf306",
      "logs": [
        {
          "address": "0x036cbd53842c5426634e7929541ec2318f3dcf7e",
          "topics": [
            "0x8c5be1e5ebec7d5bd14f71427d1e84f3dd0314c0f7b2291e5b200ac8c7c3b925",
            "0x0000000000000000000000009eba95858162442143864669e6611a6a50ddeec8",
            "0x0000000000000000000000006f1338cbb22cd90b852492c3e77cd79a6c3c1551"
          ],
          "data": "0x00000000000000000000000000000000000000000000000000000000000f4240",
          "blockHash": "0x3e9bfe06f90b2f7d1cd54bc2f29b0b22b673beb2ad7368b56d8bb9c980f6af80",
          "blockNumber": "0x14ce793",
          "transactionHash": "0xd7c2bcc47454aea503b8ff1ef4c21275baa9b4143b799887bce0d8c4e5ed3d01",
          "transactionIndex": "0x19",
          "logIndex": "0x41",
          "removed": false
        }
      ],
      "logsBloom": "0x00000000040000000008000000000000000000000000000000000000000000000000000000000000000000000000000000008000000000000000000000200000000000000000000000000000000000000000000000000000000000000000000800000000000000000000000000000000000000000000000000000000000000000000000000000000000000000000000000000000000000000000000000000000020000000008000000000000000000000200000000000008000000000001000000000000000000000000000000000000000000000000000000000000000000000010000000000000000000000020000000000000000000000000000000000000",
      "type": "0x2",
      "transactionHash": "0xd7c2bcc47454aea503b8ff1ef4c21275baa9b4143b799887bce0d8c4e5ed3d01",
      "transactionIndex": "0x19",
      "blockHash": "0x3e9bfe06f90b2f7d1cd54bc2f29b0b22b673beb2ad7368b56d8bb9c980f6af80",
      "blockNumber": "0x14ce793",
      "gasUsed": "0xd88d",
      "effectiveGasPrice": "0xe796f",
      "from": "0x9eba95858162442143864669e6611a6a50ddeec8",
      "to": "0x036cbd53842c5426634e7929541ec2318f3dcf7e",
      "contractAddress": null,
      "l1BaseFeeScalar": "0x44d",
      "l1BlobBaseFee": "0x1",
      "l1BlobBaseFeeScalar": "0xa118b",
      "l1Fee": "0x800238bd",
      "l1GasPrice": "0x48aa883b",
      "l1GasUsed": "0x640"
    },
    {
      "status": "0x1",
      "cumulativeGasUsed": "0x5eaa9f",
      "logs": [
        {
          "address": "0x036cbd53842c5426634e7929541ec2318f3dcf7e",
          "topics": [
            "0xddf252ad1be2c89b69c2b068fc378daa952ba7f163c4a11628f55a4df523b3ef",
            "0x0000000000000000000000009eba95858162442143864669e6611a6a50ddeec8",
            "0x0000000000000000000000006f1338cbb22cd90b852492c3e77cd79a6c3c1551"
          ],
          "data": "0x00000000000000000000000000000000000000000000000000000000000f4240",
          "blockHash": "0x3e9bfe06f90b2f7d1cd54bc2f29b0b22b673beb2ad7368b56d8bb9c980f6af80",
          "blockNumber": "0x14ce793",
          "transactionHash": "0xf23166d04fc2c62a99de51eaf4728d444e3a2b073646b51a8f5a54102c0eed6f",
          "transactionIndex": "0x1a",
          "logIndex": "0x42",
          "removed": false
        },
        {
          "address": "0x6f1338cbb22cd90b852492c3e77cd79a6c3c1551",
          "topics": [
            "0xddf252ad1be2c89b69c2b068fc378daa952ba7f163c4a11628f55a4df523b3ef",
            "0x0000000000000000000000000000000000000000000000000000000000000000",
            "0x0000000000000000000000009eba95858162442143864669e6611a6a50ddeec8"
          ],
          "data": "0x00000000000000000000000000000000000000000000000000000000000f4240",
          "blockHash": "0x3e9bfe06f90b2f7d1cd54bc2f29b0b22b673beb2ad7368b56d8bb9c980f6af80",
          "blockNumber": "0x14ce793",
          "transactionHash": "0xf23166d04fc2c62a99de51eaf4728d444e3a2b073646b51a8f5a54102c0eed6f",
          "transactionIndex": "0x1a",
          "logIndex": "0x43",
          "removed": false
        }
      ],
      "logsBloom": "0x00000000040000000008000000000000000000000000000000000000000000000000000000000000000000000000000000008000000000000000000000000000000000000000040000000008000000000000000000000000000000000000000800000000020000000000000000000800000000000000000000000010000000000000000000000000000000000000000000000000000000000000000000000000000000000008000000000000000000000200000000200008000000000001000000000002000000000000000000000000000000000000000000000000000020000000000000000000010000000020000000000000000000000000000000000000",
      "type": "0x2",
      "transactionHash": "0xf23166d04fc2c62a99de51eaf4728d444e3a2b073646b51a8f5a54102c0eed6f",
      "transactionIndex": "0x1a",
      "blockHash": "0x3e9bfe06f90b2f7d1cd54bc2f29b0b22b673beb2ad7368b56d8bb9c980f6af80",
      "blockNumber": "0x14ce793",
      "gasUsed": "0x1b799",
      "effectiveGasPrice": "0xe796f",
      "from": "0x9eba95858162442143864669e6611a6a50ddeec8",
      "to": "0x6f1338cbb22cd90b852492c3e77cd79a6c3c1551",
      "contractAddress": null,
      "l1BaseFeeScalar": "0x44d",
      "l1BlobBaseFee": "0x1",
      "l1BlobBaseFeeScalar": "0xa118b",
      "l1Fee": "0x800238bd",
      "l1GasPrice": "0x48aa883b",
      "l1GasUsed": "0x640"
    },
    {
      "status": "0x1",
      "cumulativeGasUsed": "0x5f15d4",
      "logs": [
        {
          "address": "0x6f1338cbb22cd90b852492c3e77cd79a6c3c1551",
          "topics": [
            "0xddf252ad1be2c89b69c2b068fc378daa952ba7f163c4a11628f55a4df523b3ef",
            "0x0000000000000000000000009eba95858162442143864669e6611a6a50ddeec8",
            "0x0000000000000000000000000000000000000000000000000000000000000000"
          ],
          "data": "0x00000000000000000000000000000000000000000000000000000000000f4240",
          "blockHash": "0x3e9bfe06f90b2f7d1cd54bc2f29b0b22b673beb2ad7368b56d8bb9c980f6af80",
          "blockNumber": "0x14ce793",
          "transactionHash": "0x65d1f8413bd11273f6db3ed9634b5f2ff3719dc39729ce9404a2883f633104e9",
          "transactionIndex": "0x1b",
          "logIndex": "0x44",
          "removed": false
        }
      ],
      "logsBloom": "0x00000000000000000000000000000000000000000000000000000000000000000000000000000000000000000000000000000000000000000000000000000000000000000000040000000008000000000000000000000000000000000000000000000000020000000000000000000800000000000000000000000010000000000000000000000000000000000000000000000000000000000000000000000000000000000000000000000000000000000200000000200008000000000001000000000002000000000000000000000000000000000000000000000000000020000000000000000000010000000000000000000000000000000000000000000000",
      "type": "0x2",
      "transactionHash": "0x65d1f8413bd11273f6db3ed9634b5f2ff3719dc39729ce9404a2883f633104e9",
      "transactionIndex": "0x1b",
      "blockHash": "0x3e9bfe06f90b2f7d1cd54bc2f29b0b22b673beb2ad7368b56d8bb9c980f6af80",
      "blockNumber": "0x14ce793",
      "gasUsed": "0x6b35",
      "effectiveGasPrice": "0xe796f",
      "from": "0x9eba95858162442143864669e6611a6a50ddeec8",
      "to": "0x6f1338cbb22cd90b852492c3e77cd79a6c3c1551",
      "contractAddress": null,
      "l1BaseFeeScalar": "0x44d",
      "l1BlobBaseFee": "0x1",
      "l1BlobBaseFeeScalar": "0xa118b",
      "l1Fee": "0x800238bd",
      "l1GasPrice": "0x48aa883b",
      "l1GasUsed": "0x640"
    }
  ],
  "libraries": [],
  "pending": [],
  "returns": {},
  "timestamp": 1739402761,
  "chain": 84532,
  "commit": "e486f08"
}