{
  "transactions": [
    {
      "hash": "0x0d2cd6c9af79a39817a241e39fec7aaf69b313a48316c2d54e48c29c4df22eca",
      "transactionType": "CALL",
      "contractName": null,
      "contractAddress": "0x036cbd53842c5426634e7929541ec2318f3dcf7e",
      "function": "approve(address,uint256)",
      "arguments": [
        "0xC0e8f2BF783E81850Fb41E08386493Daf2Cd993A",
        "1000000"
      ],
      "transaction": {
        "from": "0x9eba95858162442143864669e6611a6a50ddeec8",
        "to": "0x036cbd53842c5426634e7929541ec2318f3dcf7e",
        "gas": "0x12b1b",
        "value": "0x0",
        "input": "0x095ea7b3000000000000000000000000c0e8f2bf783e81850fb41e08386493daf2cd993a00000000000000000000000000000000000000000000000000000000000f4240",
        "nonce": "0x1a",
        "chainId": "0x14a34"
      },
      "additionalContracts": [],
      "isFixedGasLimit": false
    },
    {
      "hash": "0x02898933ceaac654de1a8e27b0f61dd08bf7f76c80d15d9226ecde11dc6e9053",
      "transactionType": "CALL",
      "contractName": null,
      "contractAddress": "0xc0e8f2bf783e81850fb41e08386493daf2cd993a",
      "function": "deposit(uint256)",
      "arguments": [
        "1000000"
      ],
      "transaction": {
        "from": "0x9eba95858162442143864669e6611a6a50ddeec8",
        "to": "0xc0e8f2bf783e81850fb41e08386493daf2cd993a",
        "gas": "0x282e9",
        "value": "0x0",
        "input": "0xb6b55f2500000000000000000000000000000000000000000000000000000000000f4240",
        "nonce": "0x1b",
        "chainId": "0x14a34"
      },
      "additionalContracts": [],
      "isFixedGasLimit": false
    }
  ],
  "receipts": [
    {
      "status": "0x1",
      "cumulativeGasUsed": "0x3f43ab",
      "logs": [
        {
          "address": "0x036cbd53842c5426634e7929541ec2318f3dcf7e",
          "topics": [
            "0x8c5be1e5ebec7d5bd14f71427d1e84f3dd0314c0f7b2291e5b200ac8c7c3b925",
            "0x0000000000000000000000009eba95858162442143864669e6611a6a50ddeec8",
            "0x000000000000000000000000c0e8f2bf783e81850fb41e08386493daf2cd993a"
          ],
          "data": "0x00000000000000000000000000000000000000000000000000000000000f4240",
          "blockHash": "0x0ef19b71c8755a484264153297a1e69ff44bfd8b7db4765c14b278364dd9d752",
          "blockNumber": "0x14ce292",
          "transactionHash": "0x0d2cd6c9af79a39817a241e39fec7aaf69b313a48316c2d54e48c29c4df22eca",
          "transactionIndex": "0x1a",
          "logIndex": "0x57",
          "removed": false
        }
      ],
      "logsBloom": "0x00000000040000000000000000000000000000000000000000000000000000000000000000000000000000000000000000000000000000000000000000200000000000000000000000000800000000000000000000000000000000000000000800000000000000000000000000000000000000000000000000000000000000000000000004000000000000000000000000000000000000000000000000000000020000000000000000000000000000000200000000000008000000000001000000000000000000000000000000000000000000000000040000000000000000000010000000000000000000000020000000000000000000000000000000000000",
      "type": "0x2",
      "transactionHash": "0x0d2cd6c9af79a39817a241e39fec7aaf69b313a48316c2d54e48c29c4df22eca",
      "transactionIndex": "0x1a",
      "blockHash": "0x0ef19b71c8755a484264153297a1e69ff44bfd8b7db4765c14b278364dd9d752",
      "blockNumber": "0x14ce292",
      "gasUsed": "0xd88d",
      "effectiveGasPrice": "0xaeb2b",
      "from": "0x9eba95858162442143864669e6611a6a50ddeec8",
      "to": "0x036cbd53842c5426634e7929541ec2318f3dcf7e",
      "contractAddress": null,
      "l1BaseFeeScalar": "0x44d",
      "l1BlobBaseFee": "0x1",
      "l1BlobBaseFeeScalar": "0xa118b",
      "l1Fee": "0x6c6877af",
      "l1GasPrice": "0x3d8a1ffd",
      "l1GasUsed": "0x640"
    },
    {
      "status": "0x1",
      "cumulativeGasUsed": "0x42d161",
      "logs": [
        {
          "address": "0x036cbd53842c5426634e7929541ec2318f3dcf7e",
          "topics": [
            "0xddf252ad1be2c89b69c2b068fc378daa952ba7f163c4a11628f55a4df523b3ef",
            "0x0000000000000000000000009eba95858162442143864669e6611a6a50ddeec8",
            "0x000000000000000000000000c0e8f2bf783e81850fb41e08386493daf2cd993a"
          ],
          "data": "0x00000000000000000000000000000000000000000000000000000000000f4240",
          "blockHash": "0x0ef19b71c8755a484264153297a1e69ff44bfd8b7db4765c14b278364dd9d752",
          "blockNumber": "0x14ce292",
          "transactionHash": "0x02898933ceaac654de1a8e27b0f61dd08bf7f76c80d15d9226ecde11dc6e9053",
          "transactionIndex": "0x1c",
          "logIndex": "0x5a",
          "removed": false
        },
        {
          "address": "0xc0e8f2bf783e81850fb41e08386493daf2cd993a",
          "topics": [
            "0xddf252ad1be2c89b69c2b068fc378daa952ba7f163c4a11628f55a4df523b3ef",
            "0x0000000000000000000000000000000000000000000000000000000000000000",
            "0x0000000000000000000000009eba95858162442143864669e6611a6a50ddeec8"
          ],
          "data": "0x00000000000000000000000000000000000000000000000000000000000f4240",
          "blockHash": "0x0ef19b71c8755a484264153297a1e69ff44bfd8b7db4765c14b278364dd9d752",
          "blockNumber": "0x14ce292",
          "transactionHash": "0x02898933ceaac654de1a8e27b0f61dd08bf7f76c80d15d9226ecde11dc6e9053",
          "transactionIndex": "0x1c",
          "logIndex": "0x5b",
          "removed": false
        }
      ],
      "logsBloom": "0x00000000040000000000000000000000000000000000800000000000000000000000000000000000000000000000000000000000000000000000000000004000000000000000000000000808000000000000000000000000000000000000000800000000020010000000000000000800000000000000000000000010000000000000000004000000000000000000000000000000000000000000000000000000000000000000000000000000000000000200000000000008000000000001000000000002000000000000000000000000000000000000040000000000000020000000000000000000000000000020000000000000000000000000000000000000",
      "type": "0x2",
      "transactionHash": "0x02898933ceaac654de1a8e27b0f61dd08bf7f76c80d15d9226ecde11dc6e9053",
      "transactionIndex": "0x1c",
      "blockHash": "0x0ef19b71c8755a484264153297a1e69ff44bfd8b7db4765c14b278364dd9d752",
      "blockNumber": "0x14ce292",
      "gasUsed": "0x1b799",
      "effectiveGasPrice": "0xaeb2b",
      "from": "0x9eba95858162442143864669e6611a6a50ddeec8",
      "to": "0xc0e8f2bf783e81850fb41e08386493daf2cd993a",
      "contractAddress": null,
      "l1BaseFeeScalar": "0x44d",
      "l1BlobBaseFee": "0x1",
      "l1BlobBaseFeeScalar": "0xa118b",
      "l1Fee": "0x6c6877af",
      "l1GasPrice": "0x3d8a1ffd",
      "l1GasUsed": "0x640"
    }
  ],
  "libraries": [],
  "pending": [],
  "returns": {},
  "timestamp": 1739400198,
  "chain": 84532,
  "commit": "e486f08"
}